:040000008A11112828
:10000800FE00030EF8000408F9000A08FA0083123B
:1000180003137F08FB008A11AA288A111328FC0100
:10002800FD01A901AA01AB01AC01AD01AE01AF010F
:1000380083018A111F287130831603138F000F1D47
:100048002328073083120317990007309A009E016E
:100058009F018316031387128B170B178312031341
:100068000C11831603130C1583120313AF012F0809
:10007800A600A7012608A0002708A1001230A200A8
:100088000030A3008A1108218A1183120313200863
:10009800B03EA90021080318013E043EAA002A0820
:1000A800A6002608AD002908A6002608AE002908E3
:1000B800013EA6002A080318013E003EA700A60933
:1000C800A709A60A0319A70A2608403EAB00270875
:1000D8000318013E9C3EAC002C08A6002608FC0034
:1000E8002B08A6002608FD00093097002D08960069
:1000F8002E089500013090008316031307129413FD
:1001080014132530831203139400831603138713E3
:10011800061706160510831203130510831603131A
:10012800141C9228831203131308A6002608A8009B
:1001380028302802031C9228F1302802031892283C
:100148002808D83EA6002608AF0092288F018E0105
:1001580009301706031DF528083097007C0896001B
:100168007D08950007122F08F600F7017608F000C1
:100178007708F1001230F2000030F3008A112B21C9
:100188008A117008B03E83120313A900710803187E
:10019800013E043EAA002A08F6007608AD002908A8
:1001A800F6007608AE002908013EF6002A08031872
:1001B800013E003EF700F609F709F60A0319F70AA7
:1001C8007608403EAB0077080318013E9C3EAC0021
:1001D8002C08F6007608FC002B08F6007608FD00CF
:1001E800FC28093097002D0896002E089500071660
:1001F8000C117B08FF007A088A0079088400780EC1
:100208008300FE0E7E0E090083120313A401A501CC
:10021800201C14292208A4070318A50A2308A507E7
:1002280001300310A20DA30DFF3E031D1529013057
:100238000310A10CA00CFF3E031D1C29200821045B
:10024800031D0C292508A1002408A0000800F401BA
:10025800F501701C35297208F4070318F50A7308AC
:10026800F50701300310F20DF30DFF3E031D36298B
:1002780001300310F10CF00CFF3E031D3D297008FE
:100288007104031D2D297508F1007408F000080099
:02400E00E4F0DC
:00000001FF
